:020000040800F2
:10000000F0620020610200087B710008B94300081B
:10001000F16E0008FD0A0008C58700080000000016
:10002000000000000000000000000000A101000826
:10003000150C000800000000FD010008917A00087E
:100040007B0200087B0200087B0200087B0200089C
:100050007B0200087B0200087B0200087B0200088C
:100060007B0200087B0200087B0200087B0200087C
:100070007B0200087B020008110B00081D0B000822
:100080007B020008290B0008B10900087B02000868
:100090007B0200087B0200087B0200087B0200084C
:1000A000617B00087B0200087B0200087D7B000862
:1000B0007B020008897B00087B020008C943000816
:1000C000BD4300087B0200087B0200087974000829
:1000D000857400086D840008798400088584000810
:1000E0007B0200087B0200087B0200087B020008FC
:1000F000AD7B00087B0200087B020008350B00087E
:100100007B0200087B0200087B0200087B020008DB
:10011000D17F0008DD7F0008957B0008A17B0008E7
:10012000410B00087B0200087B0200084D0B000811
:100130007B0200087B0200087B0200087B020008AB
:100140007B0200087B0200087B0200087B0200089B
:100150007B020008590B0008650B00089184000819
:100160007B0200087B0200087B0200087B0200087B
:100170007B0200087B0200087B0200087B0200086B
:100180007B0200087B020008DFF810D000F0DCFBE7
:1001900000480047C19A0008AFF30080F0620020D9
:1001A0002C4B19680868B0E8F04F80F30988BFF35A
:1001B0006F8F4FF0000080F311887047000000003F
:1001C00008480068006880F308884FF0000080F35A
:1001D000148862B661B6BFF34F8FBFF36F8F00DF35
:1001E00000BF00BF08ED00E0DFF80C00016841F43B
:1001F00070010160704700BF88ED00E0EFF30980F7
:10020000BFF36F8F134B1A681EF0100F08BF20ED5D
:10021000108A20E9F04F106009B44FF0500080F3CD
:100220001188BFF34F8FBFF36F8F0AF0DFFC4FF0E1
:10023000000080F3118809BC19680868B0E8F04F25
:100240001EF0100F08BFB0EC108A80F30988BFF3CE
:100250006F8F7047E4000020EFF3058070470000C7
:100260000648804706480047FEE7FEE7FEE7FEE750
:10027000FEE7FEE7FEE7FEE7FEE7FEE7517B00084C
:10028000890100082DE9F05F0546002092469B4653
:1002900088460646814640241BE02846414647469C
:1002A000224600F082FA53465A46C01A914110D3B2
:1002B00011461846224600F069FA2D1A67EB01082C
:1002C0004F4622460120002100F060FA17EB00099A
:1002D0004E41201EA4F10104DFDC484631462A4687
:1002E0004346BDE8F09F10B540EA01040346A40769
:1002F00003D009E010C9121F10C3042AFAD203E088
:1003000011F8014B03F8014B521EF9D210BDD2B2C5
:1003100001E000F8012B491EFBD270470022F6E7EE
:1003200010B513460A4604461946FFF7F0FF20466B
:1003300010BD421C10F8011B0029FBD1801A704728
:10034000034611F8012B00F8012B002AF9D11846B9
:1003500070472DE9FE4F804681EA0300C00F0C462E
:10036000009021F0004123F00045B8EB0200A941C4
:1003700005D24046214690461C460B46024623F0D5
:100380000040104347D0270DC7F30A00C3F30A51BA
:100390000290401A019040286BDAC3F3130040F436
:1003A000801B0098924620B10023D2EB030A63EB36
:1003B0000B0B01985946C0F14002504600F0E6F997
:1003C00006460D4650465946019A00F0FEF910EBDC
:1003D00008006141002487EA115284EAE7731A4356
:1003E00040D0009A62B3019A012A4FEA075215DC05
:1003F000001B61EB02014FF0004202EA0752CDE917
:100400000042001C41F5801132462B4600F035FABF
:1004100003B0BDE8F08F40462146F9E7001B61EBD1
:100420000201001C41F5801300185B412018A2F561
:10043000001747EB030140EAD570B6196D4111E092
:100440006D084FEA360645EAC0754FEA0752001BB1
:1004500061EB0201001C41F5801149084FEA3000B0
:100460000019514132462B4603B0BDE8F04F00F071
:10047000F5B90098012240000023D0EB020263EBA3
:10048000E073009821464FEAE074B8EB000061EB9E
:100490000401E9E783F000435BE781F0004158E79E
:1004A0002DE9FE4F81EA030404F0004421F00041ED
:1004B00000944FF0000B23F0004350EA01045ED09B
:1004C00052EA03045BD0C3F30A54C1F30A552C4427
:1004D000A4F2F3340194A0FB0254C1F3130141F4DC
:1004E0008011C3F3130343F4801301FB024400FBA8
:1004F000034E840A970A44EA815447EA8357A4FBCF
:10050000076802958D0A05FB07854FEA932C04FBCB
:100510000C542705029D4FEA065847EA1637B5EBFB
:1005200008056EEB070C870E920E47EA811742EA28
:100530008312A7FB0201B6EB0B0164EB00042B0D49
:1005400043EA0C335E1844EB1C50DA465146E7FB95
:100550000201C5F313044FEA0B3343EA14534FEA85
:100560000432019C43EA0603A4F10C040294009CAB
:10057000CDE900B400F081F903B0BDE8F08F0020B0
:100580000146F9E72DE9F04D81EA030404F0004B40
:1005900021F0004514464FF0000A23F0004150EAD4
:1005A000050220D054EA01021DD0C5F30A570246C5
:1005B000C5F31303C1F31300C1F30A5640F48015C9
:1005C00043F48013A7EB0608101BD64608F2FD384B
:1005D00073EB050002D308F1010801E092185B41BA
:1005E000B8F1000F03DA00200146BDE8F08D0020CD
:1005F0004FF48011064684460EE0171B73EB050787
:1006000005D3121B63EB050306434CEA010C4908B2
:100610004FEA300092185B4150EA0107EDD152EAEF
:10062000030012D082EA040083EA0501084305D0E2
:10063000101BAB4106D20122002306E000224FF03E
:10064000004302E06FF0010253101AEB06004CEB7E
:10065000085110EB0A0041EB0B01BDE8F04D00F032
:10066000FDB80EB5C10F80EAE0700844CA0700214A
:1006700040F233438DE80E000A460B4600F0FDF8C9
:1006800003B000BD0EB540F2334102910021CDE927
:1006900000110A460B4600F0F0F803B000BDC1F3AC
:1006A0000A5210B5C1F3130140F2FF3341F4801137
:1006B0009A4201DA002010BD40F233439A42A2F27E
:1006C000334203DC524200F070F810BD904010BD80
:1006D00000F0004230F000400AD0C10D01F5607119
:1006E000C0F3160042EA0151C208400711437047A7
:1006F000002001467047000030B5041E71F100046F
:1007000004DB4FF00044404264EB0101141E73F11E
:10071000000405DB1C464FF00043524263EB040328
:10072000994208BF904230BD01F0004330B421F03F
:10073000004150EA010206D00A0DA2F56072C1F331
:100740001301002A02DC30BC00207047440F44EA49
:10075000C104C100E01830BC00EBC25000F047B843
:1007600030B50B46014600202022012409E021FA81
:1007700002F59D4205D303FA02F5491B04FA02F57E
:100780002844151EA2F10102F1DC30BD202A04DB51
:10079000203A00FA02F1002070479140C2F1200394
:1007A00020FA03F3194390407047202A04DB203AD3
:1007B00021FA02F00021704721FA02F3D040C2F181
:1007C00020029140084319467047202A06DBCB17C8
:1007D000203A41FA02F043EAE07306E041FA02F3FC
:1007E000D040C2F1200291400843194670470029C9
:1007F000A8BF7047401C490008BF20F001007047A7
:1008000010B4B0FA80FC00FA0CF050EA010404BF06
:1008100010BC704749B1CCF1200421FA04F411FA5C
:100820000CF118BF012121430843A3EB0C01CB1DA0
:100830004FEA00614FEA102042BF002010BC704711
:1008400000EBC35010440029A4BF10BC7047401CEB
:10085000490008BF20F0010010BC704710B5141EFD
:1008600073F1000408DA401C41F1000192185B4169
:100870001A4301D120F0010010BD2DE9F04D924640
:100880009B4611B1B1FA81F202E0B0FA80F2203257
:100890009046FFF77BFF04460F4640EA0A0041EA14
:1008A0000B0153465A46084313D0114653EA010040
:1008B00019D0C8F140025046FFF777FF05460E46B3
:1008C000504659464246FFF761FF084305D00120D4
:1008D00004E020463946BDE8F08D0020054346EA95
:1008E000E0762C4337430A986305E40AA0EB08003E
:1008F0000022FD0A44EA47540A3002D5002001468E
:10090000E9E7010510196941DDE908450019694168
:10091000BDE8F04DA2E7C1F30A52C1F3130140F262
:10092000FF3341F480119A4202DA002001467047F9
:1009300040F233439A42A2F2334202DC5242FFF7C2
:1009400034BFFFF723BF0000064C074D06E0E06808
:1009500040F0010394E8070098471034AC42F6D306
:10096000FFF716FCBC8D0108DC8D010830B58C1832
:1009700010F8012B12F00F0301D110F8013B1209FE
:1009800006D110F8012B03E010F8015B01F8015BC0
:100990005B1EF9D101E001F8013B521EFBD1A142DF
:1009A000E6D3002030BD002800DC40427047000044
:1009B00010B5044800F0F4F9BDE81040024800F01A
:1009C000EFB90000780E0020C00E0020464910B597
:1009D0004A6822F440324A604A6843681A434A60CF
:1009E00001684A6822F480724A6001684A680369B3
:1009F00042EA03224A6001684A6822F040724A6073
:100A000001684A6883681A434A6001688A6822F468
:100A100000628A6001688A68C3681A438A60816AD2
:100A20006FF07062D14201688A6822F070628A6059
:100A300001688A680CD0836A1A438A6001688A68F0
:100A400022F040528A6001688A68C36A1A4301E052
:100A500022F040528A6001688A6822F002028A60AD
:100A600001688A68037E42EA43028A6090F8201097
:100A7000002901684A680FD042F400624A600168A8
:100A80004A6822F460424A6001684A68174C436A27
:100A900004EB43331A4301E022F400624A60016828
:100AA000CA6A22F47002CA620168CA6A838B104C57
:100AB00004EB03531A43CA6201688A6822F4007285
:100AC0008A6001688A6890F8303042EA43228A607E
:100AD00001688A6822F480628A6001688A684069D5
:100AE00042EA8020886010BD0023014000E0FFFF43
:100AF0000000F0FF012009F06BF8FBE7FEE706F0CD
:100B000011FB4FF47A74204609F062F8FBE700000D
:100B1000014800F0EDBA0000DC180020014800F0A8
:100B2000E7BA0000DC150020014800F0E1BA00003F
:100B30001C180020014800F0DBBA00009C160020C1
:100B4000014800F0D5BA0000080F0020014800F06D
:100B5000CFBA0000680F0020014800F0C9BA0000B9
:100B60009C190020014800F0C3BA00005C17002067
:100B700001681823CAB2103AB2FBF3F2054B6FF3C7
:100B80000901032A9B5CC36500D9091D81650846DC
:100B900070470000088D010810B5014600208B69E0
:100BA0008A6A4FF0C07453B1B3F5005F15D072B1CB
:100BB000012A0CD0022A0AD0032A09D104E01AB172
:100BC000012A06D0022A03D1C96AC90100D5012031
:100BD00010BDC96AA142FAD010BD002AF7D0012A7F
:100BE000F2D0022AF3D0032AF3D010BD30B5046846
:100BF000256825F480252560046863608368402BA0
:100C0000036803D099600068C26030BD9A600068D4
:100C1000C16030BD7047000006F06CF9054806F071
:100C20008DF90448103006F089F90A2008F0D0FF49
:100C3000F4E700003020002072B6FEE707F0C4FDA4
:100C40004FF4FA74204608F0C3FFFBE7704700003A
:100C500078B50024009490F83C20012A19D0012294
:100C600080F83C200A6807230568092A13D9EE6832
:100C70000A3A02EB420293409E43EE600B788A6888
:100C80000A3B03EB43039A400368DD682A43DA60BA
:100C900010E0022078BD2E6902EB420293409E4391
:100CA0002E610B788A6803EB43039A4003681D6941
:100CB0002A431A614A681F23072A13D205686E6BFC
:100CC000521E02EB820293409E436E630B790A88A8
:100CD0005B1E92B203EB83039A4003685D6B2A4369
:100CE0005A6327E005680D2A12D22E6BD21F02EB41
:100CF000820293409E432E630B790A88DB1F92B2D7
:100D000003EB83039A4003681D6B2A431A6311E0C7
:100D1000EE6A0D3A02EB820293409E43EE620B793B
:100D20000A880D3B92B203EB83039A400368DD6AA5
:100D30002A43DA62164B0568144A9D4206D10D68B3
:100D4000122D03D1556845F48005556005689D4214
:100D500018D10B68102B01D0112B13D1536843F419
:100D600000035360096810290CD10A490A4A09682E
:100D7000B1FBF2F101EB8101490000E0491E009155
:100D80000029FBD180F83C40002078BD00230140C1
:100D900000200140E000002040420F0070477047F3
:100DA00070B5044600680668456816F0020F05F045
:100DB00020012AD049B3216CC90603D4216C41F427
:100DC00000712164816811F0405F17D1217EA9B9BB
:100DD000C16A11F4700F02D0816849050ED44168D0
:100DE00021F020014160206C20F480702064206C90
:100DF000C00403D4206C40F0010020642046FFF7BB
:100E0000CDFF21686FF01200086016F0040F05F0A6
:100E1000800132D089B3206CC00603D4206C40F42A
:100E2000005020642068816811F4401F1ED1816B3E
:100E300011F4401F02D08168490517D44168490563
:100E400014D4816811F0405F10D1217E71B94168DE
:100E500021F080014160206C20F480502064206CDF
:100E6000C00503D4206C40F0010020642046FFF749
:100E7000EDFE21686FF00C00086016F0010F05F020
:100E800040010FD071B120680068C0070AD0206C03
:100E900040F480302064204600F043F821686FF071
:100EA0000100086016F0200F05F080610ED00029C7
:100EB0000CD0606C40F00200606420686FF0200588
:100EC00005602046FFF76BFF2068056070BD70B5B8
:100ED00004004FF0000503D0206C002610B107E09D
:100EE000012070BD204600F01DF8666484F83C6067
:100EF000206CC00610D4206C20F4885040F0020012
:100F000020642046FFF762FD6664206C20F002003A
:100F100040F00100206400E0012584F83C60284690
:100F200070BD70472DE9F04786B00646142168462B
:100F3000FFF7F4F93948384C14383368002537493D
:100F4000032207154FF400684FF400594FF4807ADC
:100F5000A34230D10B6843F480730B60096801F43D
:100F600080710591016841F00201016000686946E5
:100F700000F00200059001208DE82500284800F0CF
:100F80003BFA294C274804F10C03C4E90005A5608D
:100F900083E8A00725622046656236E0B46300223C
:100FA00005211220A66300F0EBFF122000F0DAFF0B
:100FB00006B0BDE8F0871D4CA342F9D10B6843F49D
:100FC00000730B60096801F400710591016841F03C
:100FD000040101600068694600F0040005903020BB
:100FE0008DE82500124800F007FA0F4C0D486034D8
:100FF000483020604FF00070C4E9010504F10C0393
:10100000204683E8A0072562656200F041F90028C8
:10101000C4D0FFF711FEC1E7002001404438024070
:101020000004024010640240080F0020002101402B
:10103000000802402DE9F0410446876D00F0DEFA19
:10104000064694F835000025022806D08020606509
:1010500084F834500120BDE8F0812068016821F057
:10106000160101602068416921F080014161206C16
:1010700008B9A06C20B12068016821F00801016066
:101080002068016821F0010101600CE000F0B6FA6F
:10109000801B052807D920206065032084F83500CF
:1010A00084F83450D7E720680068C007EED194F880
:1010B0005C103F208840B860012084F8350084F837
:1010C00034500020C7E790F83510022903D0802162
:1010D000416501207047052180F8351000680168DE
:1010E00021F0010101600020704790F83500704741
:1010F0002DE9F84304464FF00009CDF8009063480D
:101100004FF41651A56D0068B0FBF1F72E6894F806
:101110005C10082000FA01F131420FD021680A6802
:1011200052070BD50A6822F004020A6094F85C109A
:101130008840A860606D40F00100606594F85C1024
:101140004FF0010808FA01F0304208D021684969DF
:10115000090604D5A860606D40F00200606594F84F
:101160005C1004208840304208D021680968890753
:1011700004D5A860606D40F00400606594F85C10D0
:1011800010208840304218D021680968090714D51A
:10119000A86020680168490304D50068000308D5E9
:1011A000A16C07E00168C90503D4016821F00801BA
:1011B0000160216C09B12046884794F85C1020201A
:1011C0008840304231D021680968C9062DD5A86011
:1011D00094F8350005282068016806D0490347D5F2
:1011E000006800031DD4616C1CE021F01601016051
:1011F0002068416921F080014161206C08B9A06C30
:1012000020B12068016821F00801016094F85C10A9
:101210003F208840A86084F8358084F83490216DA0
:101220001FE0E16B09B120468847606D00282BD094
:10123000606DC00714D0052084F83500206801686F
:1012400021F0010101600098401C0090B84203D8D1
:1012500020680068C007F6D184F8358084F834909F
:10126000E16C002910D001B02046BDE8F0430847EA
:101270000168C905D5D4016821F01001016084F826
:10128000358084F83490CCE7BDE8F883E000002096
:101290002DE9F041044600F0B1F906465CB10220A8
:1012A00084F83500002584F834502068016821F066
:1012B000010101600DE00120BDE8F08100F09EF920
:1012C000801B052805D920206065032084F835009F
:1012D000F2E720680068C007F0D122681168204852
:1012E0000140D4E901031843D4E9033633431843DA
:1012F00063691843A3691843E3691843236A1843D1
:101300000843616A042903D1D4E90B131943084344
:10131000106020684069666A20F0070130460E437D
:10132000012704280CD1A06A0643E06A40B1204698
:10133000FFF732FC20B14020606584F83570BAE7D1
:10134000206846612046FFF713FC94F85C203F219B
:1013500091408160656584F835700020ACE700003D
:101360003F8010F02DE9F0410446866D90F834007E
:10137000002501280DD0012084F8340094F8357040
:101380000020012F07D084F8340002252846BDE84C
:10139000F0810220FBE7022784F835706065204663
:1013A000FFF724FC94F85C103F208840B060206870
:1013B000016841F016010160206C20B120680168CD
:1013C00041F0080101602068016841F001010160FD
:1013D000DCE7000070B5044600F010F90546601C1B
:1013E00002D004480078044400F008F9401BA042F1
:1013F000FAD370BDD40000202DE9F84FDFF8BCA16E
:101400000022012503264FF00F090AF1040BAAF16F
:10141000040E00BF0B6805FA02F42340A34270D10A
:101420000F7907F00307012F01D0022F16D187682B
:101430004FEA420806FA08FC27EA0C07D1F80CC06C
:101440000CFA08FC4CEA070CC0F808C04768A74330
:101450000C79C4F3001494403C4344600C79E44399
:10146000A4070AD0C4684FEA420C06FA0CF7BC4342
:101470008F6807FA0CF72743C7600C7904F0030460
:10148000022C12D1D40800EB840CDCF82040570762
:10149000FF0E09FA07F824EA0804D1F8108008FAC8
:1014A00007F848EA0408CCF8208004684FEA420CA8
:1014B00006FA0CF7BC430F7907F0030707FA0CF79D
:1014C000274307604C6814F4403F70D03C4C2768B9
:1014D00047F480472760246822F0030704F480441F
:1014E0000094384C07EB040CDCF8084897074FEAE7
:1014F000177809FA08F7BC43334FB84202D10027E6
:1015000024E054E0314FB84201D101271EE0304FB2
:10151000B84201D1022719E02E4FB84201D103276A
:1015200014E02D4FB84201D104270FE02B4FB842F1
:1015300001D105270AE02A4FB84201D1062705E06C
:10154000284FB84201D1072700E0082707FA08F71B
:101550002743CCF80878DAF800405746D1F804C0A1
:101560009C435FEACC2C00D51C433C60DBF8004078
:101570005F46D1F804C09C435FEA8C2C00D51C4325
:101580003C60DEF800407746D1F804C09C435FEA37
:101590008C3C00D51C433C60084F083F3C68D1F8A8
:1015A00004C09C435FEACC3C00D51C433C60521C09
:1015B000102AFFF42FAFBDE8F88F0000083C01406F
:1015C0004438024000300140000002400004024064
:1015D00000080240000C02400010024000140240CB
:1015E00000180240001C02400069084000D00120A1
:1015F00070470AB1816170470904FBE701488068C0
:1016000070470000D4000020704770472DE9F0417A
:10161000016804464A694E6890F83E000025D743A9
:10162000FA0506D4F243D20503D46FF48072012583
:101630004A61B90508D4F143C90505D422686FF49D
:10164000007145F002055161790525D4F143C905C2
:1016500022D4638D94F83D10226B202808D13BB929
:10166000212910D029290ED0282901D1212A0AD0D8
:1016700022686FF48061516145F00405102806D09E
:10168000402804D008E0204603F066FB04E0206810
:10169000016841F400710160380508D4F043C005C9
:1016A00005D421686FF4006045F008054861002DFD
:1016B00007D0206C284320642046BDE8F04102F0AA
:1016C000E7BEBDE8F0812DE9F047026800215368CC
:1016D000C66A90F83E4090F83D50102C12D0402C35
:1016E00010D0046C002C7DD05469E443A6077AD452
:1016F000DE43B60577D4036C03B19169BDE8F047CA
:1017000003F006BB976951694FF42A0CC9435FEA9D
:10171000C1784FF02A4904D066452AD04E4528D0DA
:1017200010E0DE43B6050DD4C16A614501D1012147
:1017300003E0C16A494501D10821C162BDE8F04713
:1017400003F070B90E0716D4DE43B60513D4416C0E
:10175000C9B21161416B09B1C96B29B9816B00290B
:1017600007D0C96B002904D00068416841F40061CA
:101770004160BDE8F0878E0706D4DE43B60503D48A
:10178000BDE8F04703F0C2B8FE43526876074FEA5F
:1017900002521DD4002AECDB0A0608D4DA435205B3
:1017A00005D4490705D5BDE8F04703F053B849070C
:1017B000DFD4D9438905DCD4212D05D0402CD8D1E4
:1017C000BDE8F04703F074B9BDE8F04703F000B896
:1017D000002ACEDB4A060BD4DA43520508D4490767
:1017E00008D501E00DE00EE0BDE8F04702F07CBF57
:1017F0004907BED4D9438905BBD4BDE8F04702F000
:101800000ABF916970E7E10606D4D943890503D47C
:10181000BDE8F04703F0E2BA2821212D27D0292D79
:1018200025D0650655D4DD436D0552D4640752D5E5
:1018300090F83D30448D002C9BD01269446A227090
:10184000426A521C4262428D521E4285428D002ADB
:101850008FD12A2B8DD10268536823F480635360A3
:101860002222026380F83D1000F0F0FA81E725069D
:1018700023D4DD436D0520D4640720D590F83D3096
:10188000448D002CF2D0446A24781461426A521CC0
:101890004262428D521E4285428D002AE6D1292B9A
:1018A000E4D10268536823F4806353602122026309
:1018B00080F83D1000F0CBFA5BE76107D6D4D9433E
:1018C0008905D3D4418D0029D0D0416A09781161AE
:1018D0000AE06107CAD4D9438905C7D4418D0029DC
:1018E000C4D01169426A1170416A491C4162418D3C
:1018F000491E41853DE7704770B5040025D094F836
:101900003D00002520B984F83C50204600F052FAF2
:10191000242084F83D002068016821F00101016065
:101920002068016841F4004101602068016821F4E9
:101930000041016000F0BCFC4D4A6168914201D851
:101940004C4900E04C49884201D2012070BD4B490E
:101950002368B0FBF1F15E6826F03F060E435E603F
:101960006368934206D94FF4967359434FF47A73E0
:10197000B1FBF3F12368491C1E6A26F03F06314390
:1019800019626168914210D84900401EB0FBF1F223
:10199000521CC2F30B02042A01D2042022E0B0FB45
:1019A000F1F0401CC0F30B001CE0A268F2B301EBA5
:1019B000C10303EB0116431EB3FBF6F35B1C43F4B8
:1019C00080431B0549D092B301EBC10202EB011128
:1019D000401EB0FBF1F0401CC0F30B0040F480400F
:1019E00040F400402168CA694CF6FF739A431043E3
:1019F000C861D4E9071001432068026822F0C002E0
:101A000011430160D4E9030101432068826848F270
:101A1000FF339A4311438160D4E9050108432168EB
:101A2000CA6822F0FF021043C86001E00EE016E031
:101A30002068016841F0010101602564202084F8DC
:101A40003D00256384F83E50002070BD01EB410647
:101A5000431EB3FBF6F35B1CB3E70120C2E701EBC7
:101A60004101401EB0FBF1F0401CC0F30B00B7E792
:101A7000A086010080841E0000093D0040420F0046
:101A80007047704770477047704700002DE9FF4F5F
:101A900083B09A46DDE9119793460446DDF840800D
:101AA000FFF7ACFD054694F83D00202870D11923BE
:101AB000012271492046009503F064FA0028F5D10F
:101AC00094F83C00012863D0012084F83C00206891
:101AD0000168C90703D1016841F001010160206874
:101AE000016821F400610160222084F83D0040205B
:101AF00084F83E0000262664C4F82480A4F82A90C6
:101B0000608D20855D48E062CDE9007553465A46F8
:101B10002046049903F02AF800287CD1208DD0B10A
:101B2000012821D00228206824D0416980690090D2
:101B3000208D032869D801282BD0514902283B4623
:101B40004FF00002009559D08846204603F01AFA5B
:101B5000002860D13CE020684169816900910168FA
:101B600041F40071016077E02068016821F4806130
:101B70000160F0E7016821F480610160206801687C
:101B800041F400610160206841698069009063E070
:101B90006FE02A463946204603F073FA98BB206866
:101BA0000069616A08704EE02068016841F40071C4
:101BB000016020680069616A0870606A401C6062A8
:101BC000218D491E2185618D491E6185216838E07E
:101BD0002068016821F48061016020680069616A01
:101BE0000870606A401C6062208D401E2085608DF8
:101BF000401E60853B46002241460095204603F08A
:101C0000C1F900B9D0E706E0FFE72A463946204689
:101C100003F037FA18B1012007B0BDE8F08F206853
:101C20000069616A0870606A401C6062218D491E0B
:101C30002185618D491E618521684A69D243520719
:101C40000AD409690170606A401C6062208D401EE0
:101C50002085608D401E6085208D00287FF468AF50
:101C6000202084F83D0084F83E6084F83C60002029
:101C7000D2E70220D0E70000020010000000FFFFC2
:101C8000040001002DE9FF4F83B09A46DDE911976A
:101C900093460446DDF84080FFF7B0FC054694F813
:101CA0003D0020287FD1192301224049204600957C
:101CB00003F068F9002876D194F83C00012872D02E
:101CC000012084F83C0020680168C90703D101683D
:101CD00041F0010101602068016821F400610160A8
:101CE000212084F83D00402084F83E000026266430
:101CF000C4F82480A4F82A90608D20852C48E062E6
:101D0000CDE9007553465A462046049902F0ACFFCF
:101D100070B930E02A463946204603F0E5F958B15B
:101D2000206C042804D12068016841F4007101602E
:101D3000012007B0BDE8F08F606A21680078086173
:101D4000606A401C6062218D491E89B22185628DC6
:101D5000521E628522685369DB435B070BD469B16D
:101D600000781061606A401C6062208D401E2085F2
:101D7000608D401E6085208D0028CBD12A463946D3
:101D8000204603F0D9F80028CAD154F83D0B016869
:101D900041F400710160202004F81E09E67766779F
:101DA0000020C6E7FFE70220C3E7000002001000A2
:101DB0000000FFFF10B586B0044614216846FEF708
:101DC000ADFA1F492068884238D11E4C0021206896
:101DD00040F400102060206800F4001005901948BD
:101DE0001038026842F002020260006800F002004F
:101DF0000590C02000901220CDE90101032003903E
:101E00000420049069461048FFF7F6FA206840F471
:101E1000001020602068002200F4001005900521C9
:101E20001F2000F0ADF81F2000F09CF800220521D3
:101E3000202000F0A5F8202000F094F806B010BD96
:101E40000054004040380240000402407047704790
:101E5000024881680278114481607047D4000020F4
:101E60000B4810B5016841F400710160016841F44C
:101E700080610160016841F480710160032000F01D
:101E80009FF80F2000F006F800F050F8002010BD79
:101E9000003C024030B505461F4887B00024016869
:101EA00041F010010160006806A900F010000090E8
:101EB00001A800F0DDF90498A8B100F0F9F940009C
:101EC0001649174AB0FBF1F11648491E026040F26C
:101ED000E732C0E90324C0E90114846100F076FF11
:101EE000040003D015E000F0E3F9E9E70D4801F044
:101EF0001BF804000DD1362000F034F8102D07D265
:101F000000222946362000F03BF80748056000E033
:101F1000012407B0204630BD4038024040420F0047
:101F200000100040081F0020D80000200C4882B09C
:101F3000016841F480410160006800F48040009035
:101F40000748001F016841F08051016000680022CD
:101F500000F0805000900F21901E02B000F010B8E9
:101F600044380240002809DB00F01F0201219140A3
:101F70004009800000F1E020C0F800117047000027
:101F8000F0B40E4B1B680C46C3F30223C3F10705E4
:101F9000042D00D90425191D072901D2002300E0D2
:101FA000DB1E012606FA05F1491E214099409E409C
:101FB000761E16403143F0BC06F0F5BC0CED00E097
:101FC000064900F0070208684FF6FF03184040EA90
:101FD0000220034A10430860704700000CED00E047
:101FE0000000FA052DE9F0418AB0040005D094F80C
:101FF000BD042668002520B108E001200AB0BDE834
:10200000F08184F8BC54204600F05EF8032084F888
:10201000BD04F06BC00500D42561206806F060FBAC
:1020200004F11001282288466846FEF75CF994E81E
:102030000F0006F033FA0226C8BB0021206806F024
:1020400093FB002001270EE000EBC00104EB8101AF
:1020500081F83D7001F83C0F08810D71CD600D6174
:10206000401CC0B28D6161688142EDD8002011E052
:1020700000EBC00104EB810181F87D5281F87C0204
:1020800081F88052C1F88852C1F88C52401CC0B20D
:10209000C1F8945261688142EAD8282241466846D4
:1020A000FEF721F994E80F0006F060FA10B184F809
:1020B000BD64A2E784F8385084F8BD74206806F047
:1020C00047FA00209AE7000010B586B004461421B4
:1020D0006846FEF723F92068B0F1A04F27D11548D4
:1020E0000021026842F001020260006800F0010075
:1020F00005904FF4C05000900220CDE9010103206B
:1021000003900A20049069460B48FFF775F90948C7
:10211000001D016841F0800101600648143001682B
:1021200041F480410160006800F48040059006B0F1
:1021300010BD000030380240000002402DE9F04799
:102140000E46050065D0DFF81481D8F80000F7B21C
:1021500000F00700B04207D288F80070D8F80000FD
:1021600000F00700B04254D128683D4C810712D5D9
:10217000400703D5206840F4E0502060287800072D
:1021800003D5206840F4604020602068A96820F0F2
:10219000F000084320602878C0072DD030496868D7
:1021A0000839012812D0022813D0032811D0096859
:1021B000890700292DDA216821F0030101432160FC
:1021C000FFF71CFA814641F2883A0EE0096889035C
:1021D000EFE709688901ECE7FFF710FAA0EB0901C6
:1021E000514502D90320BDE8F0872068696800F0F6
:1021F0000C00B0EB810FEFD1D8F80010404601F091
:102200000701B14207D90770006800F00700B0422B
:1022100001D00120E7E72878400705D52068E96864
:1022200020F4E050084320602878000706D5206895
:10223000296920F4604040EAC100206000F058F8AD
:102240002168084AC1F30311515CC840064908607F
:1022500006480068FFF71EFE0020C4E7003C02406D
:1022600008380240108D0108E0000020D80000204E
:102270000F2202600C4A136803F0030343601368E3
:1022800003F0F0038360136803F4E053C360126843
:102290004FF4E05303EAD20202610448006800F000
:1022A000070008607047000008380240003C024008
:1022B0000448054900680968044AC1F38221515C59
:1022C000C8407047E000002008380240208D010817
:1022D0000448054900680968044AC1F34231515C69
:1022E000C8407047E000002008380240208D0108F7
:1022F000154810B5006810F00C02144813D04110B6
:10230000042A0FD0082A0ED10F4C241F22682368FC
:1023100002F03F025B0207D52068C0F38810A0FBE3
:10232000010106E0084610BD2168C1F38811A1FB38
:1023300000010023FDF7A6FF2168C1F30141491CFC
:102340004900B0FBF1F010BD083802400024F40051
:102350002DE9F84F04006ED02078DFF84C93C007C9
:10236000A9F104054AD009F104000168C1F3810113
:10237000012908D00068C0F3810002280AD1D9F8E9
:102380000000400206D52868800337D56068002821
:10239000E1D033E06068B0F5803F10D0B0F5A02FF9
:1023A000286810D020F480302860286820F480202D
:1023B00028606068A8B1FFF721F906460DE028689B
:1023C00040F48030F4E740F480202860F7E700BF55
:1023D000FFF714F9801B642873D828688003F7D5A9
:1023E0000CE0FFF70BF9064605E000BFFFF706F922
:1023F000801B6428F0D828688003F7D42078DFF8A1
:10240000AC8280074FF0000A3ED5A748001D016846
:1024100011F00C0F08D00068C0F3810002280BD126
:10242000D9F80000400207D42868800716D5E06874
:10243000012800D112E033E1E068B8B10120C8F80A
:102440000000FFF7DBF8064605E000BFFFF7D6F80F
:10245000801B0228C0D828688007F7D52868216922
:1024600020F0F80040EAC10028600DE0C8F800A0A4
:10247000FFF7C4F8064604E0FFF7C0F8801B022807
:102480001FD828688007F7D42078000722D5864F08
:1024900087486169703771B101210160FFF7AEF8BB
:1024A000064604E0FFF7AAF8801B022809D838681E
:1024B0008007F7D50EE0C0F800A0FFF79FF80646AA
:1024C00005E082E0FFF79AF8801B02287DD8386883
:1024D0008007F7D42078400768D5DFF8CCB1002713
:1024E0000BF13C0BDBF80000C0000BD4DBF8001054
:1024F00041F08051CBF80010DBF80000012700F01C
:10250000805000906B4E3068C00510D4306840F4A5
:1025100080703060FFF772F8009005E0FFF76EF80A
:102520000099401A022850D83068C005F6D55E4E92
:10253000A0686C3601280FD00528306810D020F034
:1025400001003060306820F004003060A068B8B14D
:10255000FFF754F800900FE0306840F00100F4E716
:1025600040F004003060F7E7FFF748F80099411A9F
:1025700041F28830814266D830688007F4D50EE099
:10258000FFF73CF8009007E0FFF738F80099411A90
:1025900041F28830814256D830688007F4D42FB198
:1025A000DBF8001021F08051CBF80010A069C8B30F
:1025B0003D49091D0968C1F3810102294AD0022859
:1025C000504607D0C8F8600000E03CE0FFF716F87E
:1025D00004463BE04746C8F86000FFF70FF80646A0
:1025E00005E000BFFFF70AF8801B02282BD82868F7
:1025F0008001F7D4D4E907010843A16A2E4A4908AB
:1026000002EB0141626A41EA8211084394F82C10FE
:1026100040EA0161C9F8001001203866FEF7EEFFBC
:10262000044606E03EE000BFFEF7E8FF001B02287C
:1026300009D828688001F7D534E000BFFEF7DEFF37
:10264000001B022802D90320BDE8F88F286880010A
:10265000F4D427E00128F7D0D9F80000E26900F4AB
:10266000800191421CD1226A00F03F01914217D1B2
:1026700047F6C071626A0140B1EB821F10D1A26AB5
:102680004FF0FF3300F4403103EB5202B1EB024F45
:1026900006D194F82C1000F07060B0EB016F01D0FF
:1026A0000120D1E70020CFE7043802400000474274
:1026B000800E4742007000400000FFFF704700009E
:1026C00038B5016804464A688868C043430606D5A1
:1026D000C30704D1D3435B0601D4216C05E0830713
:1026E00008D4D3431B0605D4616C01B02046BDE875
:1026F00030400847830603D5430601D5C30551D4AE
:10270000D3439B064ED443060AD494F85130032B8E
:1027100049D0636D43F004036365CB688B68009315
:10272000830609D4636D43F0010363658B680093EE
:102730000B6823F040030B60C00506D4606D40F0C9
:1027400008006065206880680090606D002829D0CE
:102750002068416821F0E0014160012084F85100C7
:10276000900701D4D00722D02068416821F00301EE
:102770004160114DE06C40B10565E06CFEF7A3FCD3
:1027800018B1606D40F040006065A06C002809D071
:102790000565A06CFEF797FC002803D0606D40F043
:1027A0004000606538BDC8688868009038BD204624
:1027B000FFF784FF38BD00009174000870B5040075
:1027C00009D0606A002540B125616561A56294F871
:1027D000510040B10CE0012070BD6068B0F5827F0F
:1027E000F4D0E561F2E784F85050204600F044F858
:1027F000022084F851002068016821F04001016046
:10280000A088218900F4827001F404410843A18961
:1028100001F400610843217C01F002010843217D9D
:1028200001F001010843218B01F400710843217F6D
:1028300001F03801084394F8201001F080010843AA
:10284000218D01F40051084321680860A06904212A
:1028500001EA104094F8241001F0100108432168A7
:1028600048602068C16921F40061C161656501208B
:1028700084F85100002070BD2DE9F04186B0044677
:1028800014216846FDF74AFD3E4A216800243E486F
:10289000022503260527DFF8F480914234D13A4916
:1028A00014310A6842F480520A60096801F48051C8
:1028B0000591016841F001010160016801F0010129
:1028C0000591016841F002010160006802AA00F070
:1028D000020005902020CDE9000582E8D00069467D
:1028E0002B48FEF789FD3020CDE9000502AA694694
:1028F00082E8D0004046FEF77FFD0022052123201C
:10290000FFF73EFB232037E0224A914236D11E4991
:1029100010310A6842F480420A60096801F480417B
:102920000591016841F004010160016801F00401B2
:102930000591016841F002010160006802AA00F0FF
:10294000020005900C20CDE9000582E8D000694620
:102950001148FEF751FD4FF40050CDE9000502AAE1
:10296000694682E8D0004046FEF746FD0022052178
:102970002420FFF705FB2420FFF7F4FA06B0BDE89A
:10298000F081000000300140303802400004024075
:102990000000024000380040000802402DE9F84FD6
:1029A000044690F8500000271D4616468946012827
:1029B0000DD04FF0010B84F850B0FEF71FFE80469B
:1029C00094F85100BA46012804D0022793E002206F
:1029D000BDE8F88FB9F1000F73D0002E71D003203D
:1029E00084F85100C4F854A0C4F83090A686E68656
:1029F000C4F838A0A4F83CA0A4F83EA0C4F844A0B1
:102A0000C4F840A0A068B0F5004F09D12068016863
:102A100021F0400101602068016841F480410160BB
:102A200020680168490603D4016841F04001016053
:102A3000E068B0F5006F606803D030B3012E24D099
:102A400041E008B1012E1CD1206B21680088C860CC
:102A500006E020688168890709D5216B0988C16073
:102A6000206B801C2063E08E401EE08609E0FEF7AC
:102A7000C5FDA0EB0800A84202D3681C01D031E0DC
:102A80007DB3E08E0028E4D120E0206B216800783F
:102A9000087306E020688168890709D5216B0978E9
:102AA0000173206B401C2063E08E401EE0860AE02C
:102AB000FEF7A4FDA0EB0800A84203D3681C02D0D7
:102AC00010E017E06DB1E08E0028E3D142462946C0
:102AD000204604F0E5FC08B120206065A06818B12C
:102AE00006E0FFE7032706E02068C16880680090E1
:102AF000606D00B1012784F851B084F850A03846C9
:102B000066E72DE9F84F044690F8500000270A9E2A
:102B10001D4692468B464FF0010901280ED0012038
:102B200084F85000FEF76AFD804694F85100616811
:102B300001280CD0B1F5827F07D102E00220BDE868
:102B4000F88FA16809B9042801D00227C2E0BBF1BF
:102B5000000F27D0BAF1000F24D01DB394F8510014
:102B6000042802D0052084F8510000206065C4F8D4
:102B700038A0E587A587C4F830B0E586A58620642F
:102B8000606420680168490603D4016841F040018F
:102B90000160E068B0F5006F606805D0E8B3012D12
:102BA00046D07FE0012795E008B1012D39D1206B97
:102BB00021680088C860206B801C2063E08E401E66
:102BC000E0862EE02068816889070FD5E18E69B123
:102BD000B9F1010F0AD1216B0988C160206B801CFB
:102BE0002063E08E401EE0864FF000092068816877
:102BF000C9070CD0E18F51B1C068A16B0880A06BF0
:102C0000801CA063E08F401EE0874FF00109FEF7B3
:102C1000F5FCA0EB0800B04200E009E001D3701C15
:102C200050D1E08E0028CDD1E08F0028CAD13FE0FE
:102C3000206B216800780873206B401C2063E08EB5
:102C4000401EE0862EE02068816889070FD5E18E5E
:102C500069B1B9F1010F0AD1216B09780173206BB9
:102C6000401C2063E08E401EE0864FF00009206883
:102C70008168C9070CD0E18F51B1C068A16B0870A1
:102C8000A06B401CA063E08F401EE0874FF001095D
:102C9000FEF7B4FCA0EB0800B04202D3701C01D0D8
:102CA00010E07EB1E08E0028CDD1E08F0028CAD19F
:102CB00042463146204604F0F3FB28B1012720208C
:102CC000606507E0032705E0A06818B92068C168BF
:102CD00080680090012084F85100002084F85000A2
:102CE00038462CE77047704710B590F83C20012A11
:102CF00022D0012280F83C20CA688C6822F44072FD
:102D000022434C6822F4806222430C6822F4006261
:102D100022430C6922F4805222434C6922F400526F
:102D20002243C969002322F480420A4301684A64AD
:102D300080F83C30002010BD022010BD70B590F826
:102D40003C20012A32D0012480F83C40022280F845
:102D50003D2003685A689D6822F070060A68324375
:102D60005A60134B02689A4214D0B2F1804F11D0CE
:102D7000104B9A420ED0104B9A420BD00F4B9A42F6
:102D800008D00F4B9A4205D00E4B9A4202D00E4B00
:102D90009A4204D1496825F080031943916080F874
:102DA0003D40002180F83C10084670BD022070BDF7
:102DB000000001400004004000080040000C0040FA
:102DC00000040140004001400018004010B504001C
:102DD00003D094F83D0010B107E0012010BD0020A1
:102DE00084F83C00204600F01FF8022084F83D00E3
:102DF000211D206804F0E8FE012084F8460084F8D4
:102E00003E0084F83F0084F8400084F8410084F8D4
:102E1000420084F8430084F8440084F8450084F8B4
:102E20003D00002010BD000010B586B004461421FE
:102E30006846FDF773FA3548226800233449824218
:102E40000ED1086840F0200008600868002200F0F9
:102E50002000059005213720FFF792F8372028E061
:102E60002B482C4C001DA24227D1016841F480312F
:102E70000160006800F48030059025481038016832
:102E800041F0100101600068694600F010000590F3
:102E9000202000900220CDE901030320CDE903307A
:102EA0001D48FEF7A9FA002205211820FFF768F84F
:102EB0001820FFF757F806B010BD184B9A4207D1FB
:102EC000016841F400310160006800F4003009E05D
:102ED000134B9A4208D1016841F4802101600068D7
:102EE00000F480200590E6E70E488242E3D10868AE
:102EF00040F0800008600868002200F08000059023
:102F000005212C20FFF73CF82C20D2E700140040CC
:102F1000403802400040014000100240004401409F
:102F200000480140001C004090F83D10012901D0EC
:102F300001207047022180F83D100168CA6842F004
:102F40000102CA6000681149884214D0B0F1804F74
:102F500011D00F4988420ED00E4988420BD00E493D
:102F6000884208D00D49884205D00D49884202D0D8
:102F70000C49884204D1816801F00701062903D079
:102F8000016841F00101016000207047000001402C
:102F90000004004000080040000C00400004014014
:102FA00000400140001800402DE9F0410D460400AA
:102FB00003D094F83D0018B108E00120BDE8F0818D
:102FC000002084F83C00204600F040F8022084F8FD
:102FD0003D002068816844F2070291438160211D11
:102FE000206804F0F1FD226890689169166A2B68E8
:102FF000AF69034340F20330814341EA0721A868E7
:10300000EF6908434FF6FC418843E96840EA07202E
:10301000014328692F6A000140EA073008436968C4
:103020006D6926F0AA0646EA0515294393602268D1
:10303000906154F8460B0162012004F81F09E07505
:103040002076E0762077A0750020B7E770B586B0CF
:10305000044614216846FDF761F92F4923680024CE
:103060002D4A103902252D48B3F1804F25D02C4E22
:10307000B34220D1136843F002031360126802F0D8
:10308000020205920A6842F001020A60096801F032
:1030900001010591C0210091CDE901546946CDE9B6
:1030A0000345FEF7A9F9002205211D20FEF768FF60
:1030B0001D20FEF757FF06B070BD136843F00103F3
:1030C0001360126802F0010205920A6842F00102E0
:1030D0000A600A6802F0010205920A6842F00202E0
:1030E0000A600968012601F0020105914FF40041D0
:1030F0000091CDE90154CDE903466946FEF77CF91C
:1031000008200090CDE90154CDE903466946054801
:10311000FEF772F9CFE7000040380240000002409D
:10312000000400400004024070B590F83E60044680
:1031300090F83F5090F8423090F84320022021B19F
:1031400004290ED0012E1BD114E0012E18D1012B21
:1031500016D184F83E0084F8420001220021206844
:1031600020E0012D0CD1012A0AD184F83F0084F817
:10317000430014E0012D03D1012B01D1012A01D01C
:10318000012070BD84F83E0084F83F0084F84200BE
:1031900084F8430001220021206804F079FD012217
:1031A0000421206804F074FD2068016841F00101E9
:1031B0000160002070BD70472DE9F041054690F890
:1031C0003C0000260C46012810D0012085F83C0068
:1031D00072B1042A1CD0082A2CD00C2A50D0012607
:1031E000002085F83C003046BDE8F0810220FBE776
:1031F000D4E90012E368286804F07CFE286881693D
:1032000021F00C01816128688169A26811430FE0F7
:10321000D4E90012E368286804F0BEFE28688169DA
:1032200021F44061816128688169A26841EA022134
:103230008161D5E72868D4E9002C277B016A21F455
:1032400080710162C169036A21F0030141EA0C0146
:1032500021F0F00C39074FF420674CEA116123F498
:10326000206307EA02221A43C16102622868C16929
:1032700021F00C01C1612868C169A268114328E0EE
:103280002868D4E90027E168036A23F480530362C5
:10329000D0F81CC0036A2CF4407C4CEA07274FF698
:1032A000FF7C27F470470CEA013139434FF4204783
:1032B00023F4204307EA02321A43C16102622868FC
:1032C000C16921F44061C1612868C169A26841EA0D
:1032D0000221C16184E710B5040003D094F83D00D9
:1032E00010B107E0012010BD002084F83C0020460A
:1032F00000F01EF8022084F83D00211D206804F033
:1033000063FC012084F8460084F83E0084F83F0006
:1033100084F8400084F8410084F8420084F84300B7
:1033200084F8440084F8450084F83D00002010BD76
:10333000704770B50446006801694FF00005C94345
:10334000890715D4C168C943890711D4E91E0161F1
:1033500001202077206880698007204602D0FFF78F
:103360002AFF04E000F030F9204600F017FA257734
:1033700020680169C943490717D4C168C94349078F
:1033800013D46FF004010161022020772068806966
:1033900010F4407F204602D0FFF70DFF04E000F05C
:1033A00013F9204600F0FAF9257720680169C9432E
:1033B000090716D4C168C943090712D46FF0080180
:1033C0000161042020772068C0698007204602D070
:1033D000FFF7F1FE04E000F0F7F8204600F0DEF918
:1033E000257720680169C943C90617D4C168C94354
:1033F000C90613D46FF010010161082020772068FE
:10340000C06910F4407F204602D0FFF7D4FE04E0EC
:1034100000F0DAF8204600F0C1F92577206801694C
:10342000C943C90708D1C168C943C90704D1891E66
:103430000161204600F056FA20680169C943090677
:1034400009D4C168C943090605D46FF08001016140
:103450002046FFF747FC20680169C943490609D4A3
:10346000C168C943490605D46FF040010161204697
:1034700000F07BFA20680169C94389060BD4C16852
:10348000C943890607D46FF0200101612046BDE8D9
:103490007040FFF728BC70BD70B586B0044614219B
:1034A0006846FCF73BFF24683C4800223C49022365
:1034B000844212D1086840F010000860086869462C
:1034C00000F0100005904FF4D4400090CDE9013297
:1034D0000120CDE90320334813E03348844214D15E
:1034E000086840F0080008600868694600F00800B5
:1034F00005904FF440400090CDE901322B48CDE9D2
:103500000323FDF779FF06B070BD294803258442E7
:103510000ED1086840F0040008600868694600F0B1
:103520000400059028020090CDE9013221481DE0F9
:10353000214E2248B44209D10C6844F002040C60C8
:10354000096801F00201059181150BE01C4EB4429F
:103550000FD10C6844F002040C60096801F002010C
:10356000059171150091CDE901326946CDE9032538
:10357000C7E7144DAC42C6D10C6844F002040C609D
:10358000096801F00201059129140091CDE9013289
:103590000921CDE903216946B3E70000000001409D
:1035A000303802400010024000080040000C024089
:1035B00000040140000802400044014000040240B1
:1035C0000048014000180040704770B5044690F86C
:1035D0003C0000260D4601280FD0012084F83C0055
:1035E0006AB1042A1DD0082A2FD00C2A3FD0012608
:1035F000002084F83C00304670BD022070BD206879
:1036000004F05EFB2068816941F008018161206857
:10361000816921F004018161206881692A6911436F
:1036200011E0206804F07CFB2068816941F40061AE
:1036300081612068816921F48061816120688169EC
:103640002A6941EA02218161D2E7206804F09EFBE9
:103650002068C16941F00801C1612068C16921F099
:103660000401C1612068C1692A69114311E0206821
:1036700004F0C0FB2068C16941F40061C1612068A9
:10368000C16921F48061C1612068C1692A6941EA88
:103690000221C161ACE710B5040003D094F83D00ED
:1036A00010B107E0012010BD002084F83C00204646
:1036B00000F01EF8022084F83D00211D206804F06F
:1036C00083FA012084F8460084F83E0084F83F0025
:1036D00084F8400084F8410084F8420084F84300F4
:1036E00084F8440084F8450084F83D00002010BDB3
:1036F00008B52549026825488A4216D1016841F07B
:10370000010101600068002200F001000090052125
:103710001820FEF735FC1820FEF724FC00220521B6
:103720001B20FEF72DFC1B201DE01849184B091F1C
:103730009A4207D1086840F004000860086800F069
:1037400004001EE0134B9A4211D1016841F00201BE
:1037500001600068002200F00200009005212C208A
:10376000FEF70EFC2C20BDE80840FEF7FBBB0A4824
:10377000824207D1086840F040000860086800F005
:103780004000009008BD00000000014044380240A5
:10379000000800400004014000180040704700008D
:1037A00010B50446022249B104290ED0082913D0CD
:1037B00094F84100012816D0012010BD94F83E0075
:1037C0000128F9D184F83E200FE094F83F00012849
:1037D000F2D184F83F2008E094F840000128EBD1B2
:1037E00084F8402001E084F841200122206804F0A0
:1037F0004FFA16492068164A884201D0904203D1F8
:10380000436C43F4004343642068884213D0B0F112
:10381000804F10D00F4988420DD00F4988420AD0FE
:103820000E49884207D0904205D00D49884202D007
:103830000C49884204D1816801F00701062903D0B0
:10384000016841F001010160002010BD000001404D
:10385000000401400004004000080040000C00404B
:10386000004001400018004030B504460D46006895
:10387000002204F00DFA194B41F2111120688A1050
:10388000984202D0164B984209D1036A0B4206D1E6
:10389000036A134203D1436C23F40043436420685A
:1038A000036A0B4206D1016A114203D1016821F07B
:1038B0000101016001203DB1042D08D0082D09D07F
:1038C00084F84100002030BD84F83E00FAE784F817
:1038D0003F00F7E784F84000F4E7000000000140F3
:1038E0000004014010B5044600680749884201D130
:1038F000FEF7AEFA05492068884203D104484168C2
:10390000491C416010BD000000100040001C004038
:103910000000002070B5044690F83C00012812D049
:10392000012584F83C50022084F83D00204604F034
:1039300089FA01004FF0000007D084F83D5084F868
:103940003C00012070BD022070BD2168CA6822F0D1
:103950004002CA602168CA6822F48042CA6084F8C2
:103960003D5084F83C00002070BD704738B50446D7
:1039700090F83E00202822D181B17AB194F83C0021
:1039800001281CD0012084F83C002063204604F06C
:10399000E7FC002803D1216B012901D0012038BDAB
:1039A00021680A684968009121680C3151E8002FAC
:1039B00042F0100241E80023002BF5D138BD02206F
:1039C00038BD000010B50368314883421AD10A4659
:1039D0003049314800F0A8FC2E4801212F4A0378D5
:1039E0006C2B02D0742B05D008E04078732805D1E9
:1039F000517003E04078732800D11170642225498A
:103A000025483FE0264883420AD10A4621492548F5
:103A1000643100F089FC1F4964226431214831E09F
:103A2000214883420AD10A461A492048C83100F089
:103A30007BFC18496422C8311C4823E01C4883429F
:103A400008D10A461B491C4800F06EFC6422194943
:103A5000194817E0194883420AD10A4615491848FF
:103A6000643100F061FC134964226431144809E0B8
:103A7000144883420AD1084603F044FE0D496422EB
:103A80001148C831BDE81040FFF770BF10BD0000FD
:103A900000100140700100206C1400200000002084
:103AA00000440040B014002000480040F4140020FE
:103AB000004C00409C020020E41300200050004015
:103AC0002814002000140140381500207047000021
:103AD000F8B5016804460868CA684B6910F00F0F12
:103AE0004FF0000559D003F0010602F490773743F8
:103AF00065D0C10705D0D10503D5216C41F0010186
:103B00002164410705D5D90703D0216C41F002019A
:103B10002164810705D5D90703D0216C41F0040148
:103B20002164010707D502F02001314303D0216C45
:103B300041F008012164216C00293AD0800604D5A7
:103B4000900602D5204604F025FB20684069216CD0
:103B5000C0F38010090700D460B3204604F0E5FAF2
:103B600020684069400621D52068143050E8001FC5
:103B700021F0400140E80012002AF5D1A06BA8B165
:103B80006C490165A06BFDF79EFA002811D0A06B6F
:103B9000016D01B0BDE8F040084783060FD59306DC
:103BA0000DD52046BDE8F84004F0F4BA2046FFF7F2
:103BB0008DFFF8BD2046FFF789FF2564F8BD266B11
:103BC0002023012E79D1C60677D5D60675D508688B
:103BD000486800904869400640D5A16B0868406875
:103BE0000004000CEAD0A28D8242E7D9E085C869C2
:103BF000B0F5807F2DD020680C3050E8001F21F4F4
:103C0000807140E80012002AF5D12068143050E895
:103C1000001F21F0010140E80012002AF5D12068C0
:103C2000143050E8001F21F0400140E80012002A43
:103C3000F5D184F83E30256320680C3050E8001F31
:103C400021F0100140E80012002AF5D1A06BFDF729
:103C5000F1F9A08DE18D401A81B229E0A08DE18DAE
:103C6000401A81B2E08D0028A8D00029A6D0206893
:103C70000C3050E8002F22F4907240E80026002E0D
:103C8000F5D12068143050E8002F22F0010240E8FE
:103C90000026002EF5D184F83E30256320680C30D4
:103CA00050E8002F22F0100240E80023002BF5D14D
:103CB0002046FFF787FEF8BDFFE705062BD5150662
:103CC00029D594F83D002128F5D1A068B0F5805F92
:103CD00001D12069B0B1206A411C216221680078BD
:103CE0004860E08C401E0004000CE084E3D12068B2
:103CF000C16821F08001C1602068C16841F04001C5
:103D0000C160D8E7206A0088C0F308004860206AD4
:103D1000801C2062E5E74006CDD55006CBD5CA68A9
:103D2000204622F04002CA6084F83D3000F042FB99
:103D3000C1E70000E97F000870B5040004D094F8E2
:103D40003D00002510B106E0012070BD84F83C5014
:103D5000204600F023F8242084F83D002068C16844
:103D600021F40051C160204604F074FA2068016912
:103D700021F4904101612068416921F02A014161EB
:103D80002068C16841F40051C1602564202084F896
:103D90003D0084F83E00002070BD00002DE9F04F8A
:103DA00087B0044614216846FCF7B8FAFF48DFF8EC
:103DB000F8831038D4F800C0FC4A022103270823F6
:103DC000DFF8ECE3002506154FF040094FF0006ADC
:103DD000C4454BD1D2F800C04CF4002CC2F800C04E
:103DE000126802F400220592026842F004020260A6
:103DF0000068049300F004000590B8028DE8A30069
:103E000069467046FDF7F8FAEB4FEA483860C7E9B3
:103E100001A5C7E903567D61BD61FD613D6238467C
:103E20007D62FDF735FA08B1FCF706FFA763BC63B6
:103E3000E14FE04860373030C7F80890C7E90356D3
:103E40007D61BD61FD613D627D62C7E9000A384662
:103E5000FDF71EFA08B1FCF7EFFE676300220521AB
:103E60003420BC63FEF78CF8342076E0DFF84C8316
:103E7000C44578D1D2F800C0A8464CF4801CC2F8E2
:103E800000C0126802F480120592026842F0040237
:103E90000260026802F004020592026842F0080221
:103EA00002600068029500F0080005904FF4805011
:103EB000CDE900010820CDE903708B4669467046C4
:103EC000FDF79AFA0420CDE9000B02950820CDE910
:103ED00003706946BA48FDF78FFADFF8DCB2B549DE
:103EE0000BF1C00B30395846CBF80010C0E901A5E2
:103EF000C0E90356CBF81450CBF81850CBF81C503F
:103F0000CBF820505746CBF82450FDF7C1F908B143
:103F1000FCF792FEA748AB4DC4F838B07830CBF828
:103F2000384085E88102C5E90386C5F81480C5F8E4
:103F30001880C5F81C80C5F820802846C5F8248064
:103F4000FDF7A6F908B1FCF777FE656300220521AD
:103F50003520AC63FEF714F83520FEF703F807B000
:103F6000BDE8F08FFFE7DFF860824FF0070BC44534
:103F70005BD18E4AA846121D136843F010031360EC
:103F8000126802F010020592026842F0010202601B
:103F9000006800F0010005904FF4C0608DE8A308B0
:103FA00069468A48FDF728FADFF818B288490BF10C
:103FB000600B5846CBF80010C0E901A5C0E90356D4
:103FC000CBF81450CBF81850CBF81C50CBF820503D
:103FD0005746CBF82450FDF75BF908B1FCF72CFEEF
:103FE000784D7B48C4F838B0C0357830CBF83840CD
:103FF00085E88102C5E90386C5F81480C5F81880F4
:10400000C5F81C80C5F820802846C5F82480FDF737
:104010003FF908B1FCF710FE656300220521252059
:10402000AC63FDF7ADFF252097E7DFF8A881C44515
:1040300057D11368A84643F400331360126802F4A2
:1040400000320592026842F008020260006800F047
:104050000800059060208DE8A30869465848FDF7E0
:10406000CBF95449DFF870B148315846CBF800100D
:10407000C0E901A5C0E90356CBF81450CBF818509D
:10408000CBF81C50CBF820505746CBF82450FDF706
:10409000FFF808B1FCF7D0FD4F4D4648C4F838B0E2
:1040A00060356030CBF8384085E88102C5E9038689
:1040B000C5F81480C5F81880C5F81C80C5F82080A4
:1040C0002846C5F82480FDF7E3F808B1FCF7B4FDF5
:1040D0006563002205212620AC63FDF751FF2620F1
:1040E0003BE7DFF8F880C4454AD1136843F48023E6
:1040F0001360126802F480220592026842F00802FE
:104100000260006800F0080005904FF440708DE8F0
:10411000A30869462A48FDF76FF92F4F2548C03795
:1041200018383860C7E901A5C7E903567D61BD614C
:10413000FD613D6238467D62FDF7AAF808B1FCF7E3
:104140007BFDA763BC63264F1A48C7F80890C7E9F0
:1041500003567D61BD61FD613D6218307D62C7E936
:10416000000A3846FDF794F808B1FCF765FD67636F
:10417000002205212720BC63FDF702FF2720ECE683
:10418000184A94457FF4EBAE084A121DD2F800C0DD
:104190004CF0200CC2F800C0126802F02002059218
:1041A000026842F004021FE0004C00404038024028
:1041B00000080240406002407C1500200050004092
:1041C000000C02409C16002000100140000002403C
:1041D0004064024000440040BC17002000480040FA
:1041E000DC1800200014014002600068049300F015
:1041F00004000590C0208DE8A30069467046FDF7D5
:10420000FBF81A4F18484FF020683860C7E901855D
:10421000C7E903567D61BD61FD613D6238467D623F
:10422000FDF736F808B1FCF707FDA763BC630F4F35
:104230000D4860377830C7E903567D61BD61FD6187
:104240003D627D6287E801033846FDF721F808B139
:10425000FCF7F2FC6763002205214720BC63FDF7F1
:104260008FFE472079E60000286402403C190020B8
:10427000704770472DE9F843044690F83D001F460B
:1042800016460D4620284CD1C5B1BEB194F83C006D
:10429000012846D0012084F83C004FF00008C4F803
:1042A0004080212084F83D00FDF7A8F9A6848146CE
:1042B000E684A068B0F5805F03D004E00120BDE88B
:1042C000F883206928B12E465FF0000584F83C8011
:1042D0000EE00026FAE78021204604F08BF8A0B912
:1042E000AEB116F8010B21684860E08C401EE084F6
:1042F000E08C4B464FF0000200970028EBD14FF0C6
:104300004001204604F076F830B10320D7E735F8B5
:10431000020BC0F30800E6E7202084F83D000020EF
:10432000CDE70220CBE7000070B5044690F83D00D1
:10433000202836D191B38AB394F83C00012830D0BC
:10434000012084F83C002162A284E28400252564D7
:10435000212084F83D00636B1348D863636B1348D6
:104360001864636B1248D864606B13460565266851
:10437000606B321DFCF7F6FF21686FF040000860AB
:1043800084F83C502068143050E8001F41F0800150
:1043900040E80012002AF5D1002070BDFFE701209F
:1043A000FBE70220F9E70000DF8000082181000818
:1043B000F97F000870477047FEE700000148FDF7ED
:1043C00025B90000C80F00200148FDF77CB90000A6
:1043D000C80F002038B5806B002190F83D202B4B92
:1043E00046F2A8141B68B3FBF4F3C3EBC30303EB5F
:1043F000830300933BB15B1E009303681B689B051E
:1044000005D5009BF6E7036C43F020030364436B80
:1044100003B1D963836B03B1D96303681C6824F4C7
:1044200080641C604185436B03B11965836B03B1E4
:10443000196503681C6824F001041C6090F83D4075
:104440002023602C0BD0282434EA02020FD080F8FD
:104450003D3080F83E1000BFFDF74DFA38BD80F8C2
:104460003D3080F83E100164FDF7CEF838BD02689B
:10447000136843F0010313600268136843F4806318
:104480001360016380F83D40E6E70000E000002093
:1044900070B5044690F83D0094F83E10102901D004
:1044A000402906D1222804D121680A6822F400623A
:1044B0000A60282131EA00024FF000054FF0200683
:1044C00026D021684968090505D4602803D084F8FE
:1044D0003D6084F83E50256320684168090537D562
:1044E000416821F400614160606B90F835203C49DF
:1044F000012A11D00165606BFCF7E5FD38B3206837
:10450000016821F00101016084F83D60606B1CE0EE
:10451000256384F83D10DFE7A06B0165A06BFCF715
:10452000D2FDA0B120684169C943490605D400699C
:10453000616A0870606A401C60622068016821F04E
:104540000101016084F83D60A06B016D884710E0B7
:1045500094F83D10602910D04169C943490605D43B
:104560000069616A0870606A401C60622046FDF75D
:10457000C2F9206CC1071CD115E084F83D602564A8
:104580004169C943490605D40069616A0870606AD7
:10459000401C60622068016821F001010160204632
:1045A000FDF732F8E5E7810703D4410701D400079E
:1045B00004D52068416821F4E061416094F83D0031
:1045C000216C49070BD5282809D10648E0622563EC
:1045D00084F83D6084F83E502046FDF751FA70BDE6
:1045E000D54300080000FFFF01684A69D243520525
:1045F0000FD46FF480624A61002140F8301F2022FE
:1046000042738173026942F0040202610173012066
:1046100070470020704710B5C26A438D0168042BB3
:1046200006D0438D032B08D0438D022B1DD012E002
:104630004A6822F480624A600CE04B6823F480638D
:104640004B60042A06D0022A04D001680A6822F4CA
:1046500080620A6001680969426A1170416A491CF6
:104660004162418D491E418510BD012A30D0102A7A
:104670002ED0042A30D0022A2ED00A6842F40072CA
:104680000A6001680969426A1170416A491C416205
:10469000428D521E4285026812690A70416A491CA5
:1046A0004162418D491E418501684A6822F4407289
:1046B0004A60202180F83D1090F83E200021402AD9
:1046C00080F83E100CD012210163FDF7DAF910BD1D
:1046D0000A6822F48062D3E70A6842F48062CFE776
:1046E0000163FDF7D0F910BD38B590F83D102229CF
:1046F0000FD1418D03290DD901680969426A1170F2
:10470000416A491C4162418D491E4185418D032901
:1047100006D038BDC26A022A02D0012906D029B1CA
:104720000068416821F48061416038BD274946F244
:10473000A81300220968B1FBF3F101EB810100919C
:1047400001682023009C641E009422D00C68A405FC
:10475000F8D40C6824F480640C6001684C6824F47C
:10476000E0644C6001680969446A2170416A491C2F
:104770004162418D491E418580F83D3090F83E10E0
:1047800080F83E2040291DD012210163FDF779F900
:1047900038BD046C44F0200404644C6824F4E064E4
:1047A0004C6001680969446A2170416A491C416290
:1047B000418D491E418580F83D3080F83E20FDF74F
:1047C0009AF838BD0263FDF75EF938BDE0000020BD
:1047D00010B5C26A90F83D1021290BD1418D51B11D
:1047E000416A026809781161416A491C4162418D40
:1047F000491E418510BD20230021082A13D0202AFC
:1048000011D012F5803F0ED00268546824F4E064A1
:1048100054601122026380F83E1080F83D3000BFE2
:10482000FDF730F910BD0268546824F4E064546068
:104830000268146844F400741460016380F83D3029
:1048400090F83E2080F83E10402AE9D1FDF71CF98F
:1048500010BD000010B590F83D1090F83E30C26ACF
:10486000048DB4B1212903D0402B11D122290FD1BD
:10487000418DE1B390F83E10402942D0416A026870
:1048800009781161416A491C4162418D491E418587
:1048900010BD2129E8D120230021082A13D0202A85
:1048A00011D012F5803F0ED00268546824F4E06401
:1048B00054601122026380F83E1080F83D3000BF42
:1048C000FDF7E0F810BD0268546824F4E064546019
:1048D0000268146844F400741460016380F83D3089
:1048E00090F83E2080F83E10402AE9D100E002E036
:1048F000FDF7CAF810BD0068416821F4806141608D
:1049000010BDBDE8104000F0D3B8000078B590F8B5
:104910003E50C26A036B90F83D6000240168222E6D
:104920007AD1066D0EB9402D76D0056D1DB9056999
:10493000B5F5404F09D0458D05B3468D384D012E54
:104940000ED0438D022B3AD05DE04A698A6900920D
:104950000A6842F480720A60016D491C016578BDE5
:10496000AA4213D10A6822F480620A6001684A6888
:10497000120503D50A6822F4806216E04A698A6942
:1049800000920A6842F400720A6039E0082A10D0E6
:10499000202A0ED0122B0AD0042A03D0022A01D0DA
:1049A000102AE7D10A6842F480620A6024E0012AF2
:1049B000E0D00A6822F480620A600168DEE7042A17
:1049C00021D0022A1FD0102A1DD00B6823F4806347
:1049D0000B6001680B6843F400630B6001684B686F
:1049E0001B0509D5AA4212D0012A10D0082A0ED0E0
:1049F000102A0CD0202A0AD001684A6989690091DE
:104A0000046578BD08E00B6843F48063E5E74A6815
:104A100042F480524A60EFE7486988690090F0E705
:104A20000000FFFF90F83E10402910D00169B1F559
:104A3000804F19D0016DA9B3016D012910D1416CCE
:104A40005FF0F10201F4407142EAD11106E0016D1C
:104A50000029416C05D0C9B241F001010068016133
:104A6000704701F0FE01F9E790F83D102129416CF3
:104A700009D0C9B241F0010102681161416B29B14D
:104A8000C96B49B902E001F0FE01F5E7816B00292D
:104A9000E6D0C96B0029E3D00068416841F40061A9
:104AA00041607047FFE7416CF02201F44071CBE7B1
:104AB00010B590F83D10026D22B3026D012A2FD07F
:104AC000026D022A1DD122292FD0428D0AB121293F
:104AD00033D0428D002A14D1212912D101684A68AD
:104AE00022F4E0624A6001680A6842F400720A60D7
:104AF00000210163202280F83D2080F83E10FCF761
:104B0000C3FF10BDC16C0129816C02D0C1F3072124
:104B100008E00268C9B21161016D891C016510BD10
:104B2000816CC9B20268116104E001680A6842F44C
:104B300080720A60016D491CF0E7416A02680978D9
:104B40001161416A491C4162418D491E418510BD78
:104B50003EB502248DE81C000A46014601230248A6
:104B6000FCF794FF3EBD0000C80F00202DE9F84F70
:104B70000446006889460B9D01689846174641F433
:104B8000806101602068016841F4807101600095D6
:104B90004FF0011B0022594620460A9B00F0F2F913
:104BA0004FF4007A40B120680068C00501D5C4F810
:104BB00040A00320BDE8F88F216809F0FE000861DD
:104BC0002B46284920460A9A00F010FAF0BB2068CC
:104BD0004169806900902A4620460A9900F084FACB
:104BE00040B1206C04283AD12068016841F400717A
:104BF000016034E0FEB2B8F1010F09D02168380A33
:104C000008612A4620460A9900F06EFA0028E8D189
:104C1000206806612A4620460A9900F065FA0028B5
:104C2000DFD12068016841F48071016000950022A5
:104C3000594620460A9B00F0A5F90028B3D1216807
:104C400009F0FF0040F00100086100E007E02B469A
:104C5000044920460A9A00F0C9F90028AAD0012088
:104C6000A8E70000020001002DE9F84304460068AF
:104C70000D46DDE9089701689846164641F48071B3
:104C800001604B4600224FF001112046009700F0D2
:104C900079F948B120680068C00502D54FF400706A
:104CA00020640320BDE8F883216805F0FE00086158
:104CB0003B464A461549204600F098F988B92068D5
:104CC0004169806900903A464946204600F00CFA56
:104CD00048B1206C042804D12068016841F40071B7
:104CE00001600120DEE7F5B2B8F1010F09D02168BB
:104CF000300A08613A464946204600F0F5F9002896
:104D0000E7D1206805610020CCE700000200010027
:104D100038B50C4690F83D200021282595430268BF
:104D20000B4605D051699169009180F83C3038BD3F
:104D3000556825F480655560E243540700D501218C
:104D4000120601D5828900E0028B80F83C3092B2D5
:104D5000FCF75BFC38BD00002DE9F04190F83D40C8
:104D6000C26A002320261C4F01686FF48065082A60
:104D700001D0202A01D1282C04D0212C16D04D613D
:104D8000BDE8F081C7624A6822F4E0624A600168C7
:104D90004D6101680A6822F480620A60036380F84A
:104DA0003D6080F83E30FCF76BFEE9E7C7622122E8
:104DB000026380F83D6080F83E304A6822F4E06289
:104DC0004A6001684D6101680A6822F480620A60E5
:104DD000FDF73DF8D4E700000000FFFFF8B590F8BC
:104DE0003D6004460068416821F4E061416020684C
:104DF000002541690091016841F0010101602068CE
:104E0000016821F48061016020684168090520D5AE
:104E1000474F222E48D02A2E46D0616B0968496838
:104E20006185618D19B1216C41F0040121644168F3
:104E300021F400614160606BFCF757F9012808D04C
:104E4000606B0765606BFCF73EF910B1606B016D3C
:104E50008847608D08B320684169C943490708D471
:104E60000069616A0870606A401C6062608D401E63
:104E7000608520684169C943490608D40069616AB0
:104E80000870606A401C6062608D401E6085608DA5
:104E900018B1206C40F004002064206C00B3204660
:104EA000BDE8F840FFF7F4BAA16B0968496861856D
:104EB000618D19B1216C41F004012164416821F434
:104EC00000614160A06BFCF710F90128C1D0A06B14
:104ED0000765A06BFCF7F7F80028BAD0A06BB6E71F
:104EE0002A2E06D12563282084F83D002046FCF7B1
:104EF000ADFF94F83D10202028290DD0216B2229E8
:104F000001D0222E07D1256384F83D0084F83E505D
:104F10002046FCF79BFFF8BD0649E162256384F853
:104F20003D0084F83E502046FCF7AAFDF8BD000085
:104F3000D54300080000FFFF70B516460D46044635
:104F40000DE02046FFF750FB08B1012070BD681C42
:104F500005D0FCF753FB801BA84207D835B1206869
:104F60004069C0434007ECD4002070BD002044F8E5
:104F7000300F20216173A073216941F0200121616C
:104F80002073E2E72DE9F0471E4690460D460446A1
:104F9000C1F30747DDF8209008E0701C06D0FCF74D
:104FA0002DFBA0EB0900B0420FD876B12068012F8D
:104FB00018D0806925EA00000004000C14D00021FC
:104FC0004145EAD00020BDE8F087002044F8300FCA
:104FD00020216173A073216941F0200121612073B8
:104FE0000120F0E74069E5E70121E9E72DE9F04715
:104FF0009A4691460E46044600254FF02008C1F31C
:10500000074725E020684069C043400514D4206864
:10501000016841F40071016021686FF480604861AB
:10502000256384F83D8084F83E50206C40F00400F5
:10503000206484F83C501FE0B9F1FF3F08D0FCF732
:10504000DDFAA0EB0A0149450CD8B9F1000F09D0EF
:105050002068012F13D0806926EA00000004000CAC
:105060000BD0CFE744F8305F84F80D80A57320693A
:1050700040F02000206125730120BDE8F0874069E1
:10508000EAE72DE9F041002590460E460446202728
:1050900017E04069C043C0060CD454F8301B6FF0D1
:1050A0001000486144F810596777A577206A20629C
:1050B000257717E0FCF7A2FAA0EB0800B04208D869
:1050C0003EB120684169C9434906E2D40020BDE8E9
:1050D000F08144F8305F6773A573206940F02000C9
:1050E000206125730120F2E770B516460D4604468F
:1050F0000DE02046FFF778FA08B1012070BD681C6A
:1051000005D0FCF77BFA801BA84207D835B1206890
:105110004069C0430006ECD4002070BD002044F874
:10512000300F20216173A073216941F020012161BA
:105130002073E2E717B583B00224012305AA8DE8A6
:105140001C000A4601460248FCF79CFD06B010BD53
:10515000C80F0020C82004F03BFDFBE770B5134DDD
:1051600001212846FCF740FAB0B1114C80212046BD
:10517000FCF73AFA90B110212046FCF735FA78B1E5
:1051800002212846FCF730FA60B140212046FCF7A6
:105190002BFA48B1002070BD012070BD022070BD07
:1051A000032070BD042070BD052070BD00080240C2
:1051B000001002401F4D204CFFF7D0FF2070617897
:1051C00020EA010241408143E270A1706070012930
:1051D00008D0022908D0032914D0042914D00529A5
:1051E00021D023E015A01FE0002000F0A1F816A0B8
:1051F00003F0A2FB2878401CC0B22870052815D9FE
:1052000001200EE014A00FE0002000F091F816A09D
:1052100003F092FB2878401E10F0FF00287005D1A3
:105220000520287002E014A003F086FB142004F08F
:10523000CFFCC1E7300000202C00002055704B65EA
:105240007920446F776E000052696768744B657906
:1052500020446F776E000000446F776E4B657920B5
:10526000446F776E000000004C6566744B657920D2
:10527000446F776E0000000043656E7465724B6585
:105280007920446F776E00002DE9F04104461D46F9
:1052900016460F462A2000F09BFD204600F08EFDAA
:1052A000304600F08BFD2B2000F092FD384600F0D8
:1052B00085FD284600F082FDBDE8F0412C2000F07D
:1052C00087BD00002DE9FF5F814618488B4600EB43
:1052D0004217002509F1100A4FF001080BEB0500F9
:1052E00000F110018BB281B21FFA8AF21FFA89F025
:1052F000FFF7CAFF00260024397808FA04F00142BB
:1053000001D0039800E00E9800F058FD641CE4B250
:10531000082CF1D3761CF6B27F1C022EEBD36D1C49
:10532000EDB2102DDAD3BDE8FF9F0000CCB7000826
:1053300008B500210090A0238022084600F00CF858
:1053400008BD10B514460B460246FFF79DFF2046E8
:10535000BDE8104000F032BD2DE9F04780461F4601
:10536000581E83B21646501E82B20C464046DDF8E7
:105370002090FFF789FF0AE0454604E0484600F028
:105380001DFD6D1CADB2B542F8D3641CA4B2BC4285
:10539000F2D3BDE8F08700002DE9F05F00269846C3
:1053A0001746894683463446DDF828A01AE000BF38
:1053B00009EB080083B20BEB070082B209EB040093
:1053C00081B25846FFF760FF002507E00AEB460070
:1053D000008800F0F3FC6D1CADB2761CBD42F5D325
:1053E000641CA4B24445E3D3BDE8F09F10B57E4CE5
:1053F000002201212046FCF7FCF8642004F052F959
:10540000012211462046FCF7F4F8642004F04AF922
:10541000012208212046FCF7ECF8642004F042F950
:10542000112000F0D5FC782004F03CF9B12000F008
:10543000CFFC052000F0E0FC3C2000F0DDFC3C202F
:1054400000F0DAFCB22000F0C3FC052000F0D4FC30
:105450003C2000F0D1FC3C2000F0CEFCB32000F05A
:10546000B7FC052000F0C8FC3C2000F0C5FC3C2047
:1054700000F0C2FC052000F0BFFC3C2000F0BCFCAA
:105480003C2000F0B9FCB42000F0A2FC032000F0A6
:10549000B3FCC02000F09CFC282000F0ADFC0820EC
:1054A00000F0AAFC042000F0A7FCC12000F090FC52
:1054B000C02000F0A1FCC22000F08AFC0D2000F00A
:1054C0009BFC002000F098FCC32000F081FC8D20A4
:1054D00000F092FC2A2000F08FFCC42000F078FC41
:1054E0008D2000F089FCEE2000F086FCC52000F045
:1054F0006FFC1A2000F080FC362000F069FCC02010
:1055000000F07AFCE02000F063FC042000F074FC62
:10551000222000F071FC072000F06EFC0A2000F051
:105520006BFC2E2000F068FC302000F065FC25208C
:1055300000F062FC2A2000F05FFC282000F05CFCF8
:10554000262000F059FC2E2000F056FC3A2000F0F6
:1055500053FC002000F050FC012000F04DFC032023
:1055600000F04AFC132000F047FCE12000F030FC82
:10557000042000F041FC162000F03EFC062000F064
:105580003BFC0D2000F038FC2D2000F035FC2620DF
:1055900000F032FC232000F02FFC272000F02CFC30
:1055A000272000F029FC252000F026FC2D2000F00B
:1055B00023FC3B2000F020FC002000F01DFC01201B
:1055C00000F01AFC042000F017FC132000F014FC7B
:1055D0003A2000F0FDFB052000F00EFCBDE8104075
:1055E000292000F0F5BB0000001002402DE9FF4F1C
:1055F00081B00446DDF83C9000904FEA59074FF027
:105600000008780700D0012000EBD70000FB09FB61
:10561000203AD0B20390029802994844401E83B2C7
:10562000E019401E82B22046FFF72EFE002553E00F
:10563000B9F10C0F2AD0B9F1100F2ED0B9F1180F13
:105640002ED0B9F1200F49D12749039801EB8010E2
:10565000002610F805A0109800284FF0010000FA6D
:1056600006F000EA0A0022D020B12046049A0299EE
:10567000FFF767FE641C0098A4B2201AB84225D137
:105680000298009C401C80B2029023E003981749C6
:1056900000EB400001EB8000DAE71549039803E0D6
:1056A0000398144900EB400001EB0010D0E708B16B
:1056B000049800E00E9800F081FB08F10100C0B2F0
:1056C000B0FBF7F1804607FB118050B1761CF6B2B3
:1056D000082EC0D36D1CADB25D45A9D305B0BDE8A1
:1056E000F08F4FF00008F5E740D500080CB900082E
:1056F00080BD000870C300082DE9FE4F9946DDE922
:105700000D6714468A460546DDF830800CE0CDF87A
:1057100000804B4651462846CDE90167FFF766FFFA
:1057200005EB560085B2641C2278002AEFD1BDE853
:10573000FE8F00000EB5FFF759FEFE4800210090D5
:10574000A02380220846FFF727FEC82004F040FA75
:105750000020FFF7EDFDDFF8E0A300244FF0100973
:105760004FF6FF784FF00C0B47F67C5500222B4686
:1057700011460A200094FFF7A5FD2B4601220021C7
:105780001C200094FFF79EFDCDE900494F464FF6DF
:10579000E073EAA200212E200294FFF7ADFFEA4851
:1057A00001684FF47A70B1FBF0F2E8A1E94803F028
:1057B000D3F8CDE9004745464346E64A902100200C
:1057C0000294FFF799FF56469AF80020E2A1E148BB
:1057D00003F0C2F8CDE900472B46DE4A9021502065
:1057E0000294FFF789FF3078012858D1DCA1D9480D
:1057F00003F0B2F8CDE900494FF6E073D54A102125
:1058000032200294FFF778FFD7488068FAF760FFEC
:1058100041EC100BD5A153EC102BCE4803F09CF8B3
:10582000CDE9004B5F462B46CA4A20210020029456
:10583000FFF762FFCC48D4A1B0F90C20C54803F0B3
:105840008BF8CDE900472B46C24A2C210020029458
:10585000FFF752FFD0488068FAF73AFF41EC100B8F
:10586000CEA153EC102BBB4803F076F8CDE90047EE
:105870002B46B84A382100200294FFF73DFFC64866
:10588000C1A1B0F90C20B34803F066F8CDE9004798
:105890002B46B04A442100200294FFF72DFF3078B8
:1058A000B24602287DD1C4A1AA4803F055F8CDE93B
:1058B00000494FF6E073A74A102132200294FFF707
:1058C0001BFFBF4F786B00EE100AF86AF8EE400A33
:1058D00000EE100AB8EE401A80EE810A10EE100AAF
:1058E000FAF7F6FE41EC100BB6A153EC102B9948D9
:1058F00003F032F8CDE9004B5E462B46954A202155
:1059000000200294FFF7F8FEB86B00EE100AF86A68
:10591000F8EE400A00EE100AB8EE401A80EE810A56
:1059200010EE100AFAF7D4FE41EC100BAAA153ECCA
:10593000102B884803F010F8CDE900462B46854A25
:105940002C2100200294FFF7D7FEF86B00EE100A1E
:10595000F86AF8EE400A00EE100AB8EE401A80EE3F
:10596000810A10EE100AFAF7B3FE41EC100B9FA16A
:1059700053EC102B774802F0EFFFCDE900462B46A1
:10598000744A382100200294FFF7B6FE386C00EE0E
:10599000100AF86AF8EE400A00EE100AB8EE401A53
:1059A00000E0A5E080EE810A10EE100AFAF790FE02
:1059B00041EC100B92A153EC102B664802F0CCFF87
:1059C000CDE900462B46634A442100200294FFF7AC
:1059D00093FE904800688F4F00EE100A103FF8EEDB
:1059E000400A386800EE100AB8EE401A80EE810ACC
:1059F00010EE100AFAF76CFE41EC100B86A153EC86
:105A0000102B544802F0A8FFCDE900462B46514A1E
:105A1000502100200294FFF76FFE7E48001D0068B1
:105A200000EE100A3868F8EE400A00EE100AB8EEF0
:105A3000401A80EE810A10EE100AFAF749FE41EC96
:105A4000100B7AA153EC102B424802F085FFCDE9F0
:105A500000462B463F4A5C2100200294FFF74CFE93
:105A60007748006800EE100A75480838F8EE400ADA
:105A7000006800EE100AB8EE401A80EE810A10EEBF
:105A8000100AFAF725FE41EC100B6EA153EC102B17
:105A9000304802F061FFCDE900462B462D4A6821CF
:105AA00000200294FFF728FE6B48006800EE100A01
:105AB00069480838F8EE400A006800EE100AB8EEAF
:105AC000401A80EE810A10EE100AFAF701FE41EC4E
:105AD000100B62A153EC102B1E4802F03DFFCDE9E4
